:020000040800F2
:10000000B0070020A1010008A9010008AB01000809
:10001000AD010008AF010008B101000800000000B8
:10002000000000000000000000000000B301000814
:10003000B501000800000000B7010008B901000880
:10004000BB010008BB010008BB010008BB010008A0
:10005000BB010008BB010008BB010008BB01000890
:10006000BB010008BB010008BB010008BB01000880
:10007000BB010008BB010008BB010008BB01000870
:10008000BB010008BB010008BB010008BB01000860
:10009000BB010008BB010008BB010008BB01000850
:1000A000BB010008BB010008BB010008BB01000840
:1000B000BB010008BB010008BB010008BB01000830
:1000C000BB010008BB010008BB010008BB01000820
:1000D000BB010008BB01000845120008BB01000875
:1000E000BB010008BB010008BB010008BB01000800
:1000F000BB010008BB010008BB010008BB010008F0
:10010000BB010008BB010008BB010008BB010008DF
:1001100019120008BB010008BB010008BB01000860
:10012000BB010008BB010008BB010008BB010008BF
:10013000BB010008BB010008BB010008BB010008AF
:10014000BB010008BB010008BB010008BB0100089F
:10015000BB010008BB010008BB010008BB0100088F
:10016000BB010008BB010008BB010008BB0100087F
:10017000BB010008BB010008BB010008BB0100086F
:10018000BB010008BB010008DFF810D000F09AFBAB
:100190000048004721320008AFF30080B00700207C
:1001A0000648804706480047FEE7FEE7FEE7FEE711
:1001B000FEE7FEE7FEE7FEE7FEE7FEE76511000863
:1001C00089010008D2B201E000F8012B491EFBD2E0
:1001D00070470022F6E710B513460A460446194652
:1001E000FFF7F0FF204610BD30B505462A460B4606
:1001F00012F8010B13F8014B08B1A042F8D01CB162
:10020000002802D06D1CF1E7284630BD10B5044629
:1002100004E00B7800F8013B03B1491C521EF8D2F0
:10022000204610BD421C10F8011B0029FBD1801A8A
:1002300070472DE9F05F93460F468046044600263E
:1002400001F08EF9D0F80090824614F8015B2DB1D0
:1002500000F09EF80068405DC007F6D12B2D02D05B
:100260002D2D1AD0641E0021CAF800105A463946B6
:10027000204600F09AF8014627B13868A04201D123
:10028000C7F80080DAF80000022809D0CAF8009008
:10029000700505D54842BDE8F09F46F48066E2E768
:1002A0000846F8E700F0004230F000400AD0C10DE7
:1002B00001F56071C0F3160042EA0151C20840071F
:1002C0001143704700200146704701F0004330B4ED
:1002D00021F0004150EA010206D00A0DA2F5607239
:1002E000C1F31301002A02DC30BC00207047440F28
:1002F00044EAC104C100E01830BC00EBC25000F079
:10030000F1B830B50B46014600202022012409E057
:1003100021FA02F59D4205D303FA02F5491B04FABE
:1003200002F52844151EA2F10102F1DC30BD2DE9D1
:10033000F05F0546002092469B4688460646814669
:1003400040241BE0284641464746224600F0DBFA9F
:1003500053465A46C01A914110D3114618462246B8
:1003600000F0C2FA2D1A67EB01084F462246012021
:10037000002100F0B9FA17EB00094E41201EA4F14C
:100380000104DFDC484631462A464346BDE8F09F7B
:1003900000487047CC3D000810B50446FFF7F8FF51
:1003A0000068005D00F0010010BD2DE9F05F82469D
:1003B0000078002715468B460AF10104B94630281B
:1003C00001D09DB113E014F8010B0127782803D068
:1003D000582801D045B10AE00DB1102D07D10027F2
:1003E000102514F8010B02E0082500E00A2500267C
:1003F000B0460EE005FB080005FB06F1012701EB06
:1004000010461FFA80F8B6F5803F00D3B94614F8BD
:10041000010B294600F099FA0028EBDABBF1000F36
:1004200005D00FB1641E00E05446CBF80040B9F18E
:10043000000F06D001F094F802210160C81EBDE84B
:10044000F09F48EA0640FAE70FB4002300B589B0F0
:100450000CA900910B996FF00042CB601E4B0693E4
:100460001E4B07930423CDE901321D4A0892024630
:100470006B46002000F00CFB09B05DF814FB70B572
:1004800086B006464FF0FF300091CDE90101002013
:1004900015460C4604903246694604A8FFF7D4FF7F
:1004A00002460498211825B108B1084600E020460C
:1004B0002860049800280DD0002A02DD00988842A8
:1004C00008D0081B0094CDE901043246694604A80F
:1004D000FFF7BAFF06B070BDC90C0008E70C0008B2
:1004E000990300080029A8BF7047401C490008BFB5
:1004F00020F00100704710B4B0FA80FC00FA0CF054
:1005000050EA010404BF10BC704749B1CCF120048B
:1005100021FA04F411FA0CF118BF01212143084318
:10052000A3EB0C01CB1D4FEA00614FEA102042BF44
:10053000002010BC704700EBC35010440029A4BF3A
:1005400010BC7047401C490008BF20F0010010BCDF
:1005500070472DE9FE4F804681EA0300C00F0C462C
:10056000009021F0004123F00045B8EB0200A941C2
:1005700005D24046214690461C460B46024623F0D3
:100580000040104347D0270DC7F30A00C3F30A51B8
:100590000290401A019040286BDAC3F3130040F434
:1005A000801B0098924620B10023D2EB030A63EB34
:1005B0000B0B01985946C0F14002504600F094F9E7
:1005C00006460D4650465946019A00F0ACF910EB2C
:1005D00008006141002487EA115284EAE7731A4354
:1005E00040D0009A62B3019A012A4FEA075215DC03
:1005F000001B61EB02014FF0004202EA0752CDE915
:100600000042001C41F5801132462B4600F08BFB66
:1006100003B0BDE8F08F40462146F9E7001B61EBCF
:100620000201001C41F5801300185B412018A2F55F
:10063000001747EB030140EAD570B6196D4111E090
:100640006D084FEA360645EAC0754FEA0752001BAF
:1006500061EB0201001C41F5801149084FEA3000AE
:100660000019514132462B4603B0BDE8F04F00F06F
:100670004BBB0098012240000023D0EB020263EB49
:10068000E073009821464FEAE074B8EB000061EB9C
:100690000401E9E783F000435BE781F0004158E79C
:1006A0002DE9FE4F81EA030404F0004421F00041EB
:1006B00000944FF0000B23F0004350EA01045ED099
:1006C00052EA03045BD0C3F30A54C1F30A552C4425
:1006D000A4F2F3340194A0FB0254C1F3130141F4DA
:1006E0008011C3F3130343F4801301FB024400FBA6
:1006F000034E840A970A44EA815447EA8357A4FBCD
:10070000076802958D0A05FB07854FEA932C04FBC9
:100710000C542705029D4FEA065847EA1637B5EBF9
:1007200008056EEB070C870E920E47EA811742EA26
:100730008312A7FB0201B6EB0B0164EB00042B0D47
:1007400043EA0C335E1844EB1C50DA465146E7FB93
:100750000201C5F313044FEA0B3343EA14534FEA83
:100760000432019C43EA0603A4F10C040294009CA9
:10077000CDE900B400F0D7FA03B0BDE8F08F002057
:100780000146F9E72DE9F04D81EA030404F0004B3E
:1007900021F0004514464FF0000A23F0004150EAD2
:1007A000050220D054EA01021DD0C5F30A570246C3
:1007B000C5F31303C1F31300C1F30A5640F48015C7
:1007C00043F48013A7EB0608101BD64608F2FD3849
:1007D00073EB050002D308F1010801E092185B41B8
:1007E000B8F1000F03DA00200146BDE8F08D0020CB
:1007F0004FF48011064684460EE0171B73EB050785
:1008000005D3121B63EB050306434CEA010C4908B0
:100810004FEA300092185B4150EA0107EDD152EAED
:10082000030012D082EA040083EA0501084305D0E0
:10083000101BAB4106D20122002306E000224FF03C
:10084000004302E06FF0010253101AEB06004CEB7C
:10085000085110EB0A0041EB0B01BDE8F04D00F030
:1008600053BAC1F30A52C1F3130140F2FF3341F40A
:1008700080119A4202DA00200146704740F2334369
:100880009A42A2F2334202DC524200F03CB800F03D
:100890002BB8000030B5041E71F1000404DB4FF0EA
:1008A0000044404264EB0101141E73F1000405DBB7
:1008B0001C464FF00043524263EB0403994208BFC9
:1008C000904230BD064C074D06E0E06840F0010361
:1008D00094E8070098471034AC42F6D3FFF758FC71
:1008E000D03D0008F03D0008202A04DB203A00FA41
:1008F00002F1002070479140C2F1200320FA03F377
:10090000194390407047202A04DB203A21FA02F074
:100910000021704721FA02F3D040C2F12002914039
:10092000084319467047202A06DBCB17203A41FAC4
:1009300002F043EAE07306E041FA02F3D040C2F16C
:10094000200291400843194670473A2800D23038B7
:1009500020F02002412A01D3A2F13700884201D3BE
:100960004FF0FF30704700002DE9FF4F087883B04B
:100970009946FF2805D0491C2D2804D000240020CA
:1009800008E000200BE00124F9E700EB800003EB16
:100990004000491C0B78FF2BF7D104B140420023E3
:1009A0000293147819461D462D2C01D02B2C04D10E
:1009B000521C2D2C13D000240294AA461478FF2C2C
:1009C0000FD00A25A3FB057801FB05814FF0000C31
:1009D00003FB0C11521CE3194AEB0101EEE7012461
:1009E000EAE7814453EA010002D019F5C87F06DA2C
:1009F00003980021C0E9001107B0BDE8F08F002581
:100A0000AE4E2F46DFF8B882184600F0DAF9CDE98D
:100A10000001B9F1000002DAC9F1000400E0044667
:100A20000023A74A1AEB030B42EB045A12E0E0073B
:100A300007D02A46334638464146FFF731FE07467F
:100A400088462A46334610461946FFF729FE0546D2
:100A50000E466410002CEAD1DDE90001B9F1000F67
:100A60005A46534606DAFFF78DFE3A464346FFF7ED
:100A700089FE05E0FFF714FE3A464346FFF710FEF5
:100A8000029A0AB181F00041039AC2E90001B3E77A
:100A90002DE9FF4F1F468DB0D7E901464FF0FF38D3
:100AA0002E2045464FF000090B90B9696D1C0E9839
:100AB0008847396A824688470028F6D1BAF1FF3F55
:100AC0000AD024F4D064002E11DDBAF12B0F08D027
:100AD000BAF12D0F0BD102E0404611B08DE744F47E
:100AE0008064B9696D1C0E9888478246761E6946F7
:100AF000600501D52D2000E02B208DF8000001F1CC
:100B0000010B0DF1200809E0B9696D1C0E988847AA
:100B100082460F9844F40074761E0560002E02DDB4
:100B2000BAF1300FF0D00B998A453ED144F08004E1
:100B300006E00F99681CA9F1010944F400740860EB
:100B4000B9696D1C761E0E98884782463028F0D011
:100B50002BE00B998A4505D1200603D444F080048C
:100B6000761E18E0504601F0C3F908B30DF11301E9
:100B7000761E44F400748B4508D2AAF130000BF8BD
:100B8000010B200607D5A9F1010003E0200602D4DD
:100B900009F101008146A00502D50F99681C086083
:100BA000B9696D1C0E9888478246002ED1DC53E04F
:100BB000002E51DDBAF1650F02D0BAF1450F4BD1CD
:100BC000A00549D5B9696D1C24F44074761E0E98B1
:100BD00088478246002E0CDD2B2804D0BAF12D0F59
:100BE00007D144F48074B9696D1C0E988847824619
:100BF000761EE00501D52D2100E02B2108F8011B10
:100C0000CDF82C8021E00DF12901761E44F400740A
:100C100088450CD2AAF1300010F0FF0088F80000DF
:100C200002D10B99884509D908F1010806E0E005D1
:100C300001D5244801E042F20F708146B9696D1C6C
:100C40000E98884782460F980560002E04DD5046B6
:100C500001F04EF90028D6D1F9690E988847FF2097
:100C60008BF8000088F800000020069007904B46A3
:100C70006A4608A906A8FFF777FEA00502D46FF020
:100C800001002AE714F0240F0AD0E00714D1DDE9AF
:100C900006123868031D3B600068C0E900120BE0D3
:100CA000DDE90601FFF711FB0146E00704D13868D2
:100CB000021D3A600068016028460EE700001440FB
:100CC0000000F03FF1D8FFFF426842B1016811F81F
:100CD000013B23B1521EC0E90012184670470121A2
:100CE000C160881E704742685AB1C368016843B941
:100CF00083688B4205D0491E521CC0E900120020B7
:100D000070474FF0FF30704710B5141E73F10004A8
:100D100008DA401C41F1000192185B411A4301D1ED
:100D200020F0010010BD2DE9F04D92469B4611B117
:100D3000B1FA81F202E0B0FA80F220329046FFF779
:100D4000D3FD04460F4640EA0A0041EA0B01534630
:100D50005A46084313D0114653EA010019D0C8F18E
:100D600040025046FFF7CFFD05460E465046594615
:100D70004246FFF7B9FD084305D0012004E02046B4
:100D80003946BDE8F08D0020054346EAE0762C4365
:100D900037430A986305E40AA0EB08000022FD0A25
:100DA00044EA47540A3002D500200146E9E701052C
:100DB00010196941DDE9084500196941BDE8F04DA8
:100DC000A2E70EB540F2334202920022CDE90022A2
:100DD0001346FFF7A8FF03B000BDF0B50A46002197
:100DE0000023002400BF3DE0012505FA01F315684A
:100DF00005EA03049C4234D105684F000326BE4037
:100E0000B543056015794E00B54006683543056069
:100E10001579012D02D01579022D16D185684F0064
:100E20000326BE40B543856055794E00B5408668BF
:100E300035438560456801268E40B5434560456869
:100E400096798E40B6B235434560C5684F0003269B
:100E5000BE40B543C560D5794E00B540C668354340
:100E6000C560491C1029BFD3F0BDF0B50023002494
:100E70004D07ED0E02FA05F3CE1000F1200555F8EE
:100E800026504E07F70E0F26BE40B543CF1000F197
:100E9000200646F82750CE1000F1200555F82650C0
:100EA00045EA0304CE1000F1200545F82640F0BDC8
:100EB00070B5002100230F22C4781CB3174C24689E
:100EC00004F4E064C4F5E064C4F30721C1F1040450
:100ED000E3B20A4144789C40E1B284781440214353
:100EE0000C07210E0E4C05786155047804F01F059F
:100EF0000124AC4005786D11AD0005F1E025C5F881
:100F0000004109E0047804F01F050124AC40054DC0
:100F10000678761145F8264070BD00000CED00E023
:100F200000E400E080E100E029B1064A12680243D3
:100F3000044B1A6004E0034A12688243014B1A60B2
:100F4000704700003038024029B1064A1268024357
:100F5000044B1A6004E0034A12688243014B1A6092
:100F60007047000040380240F0B500210022002404
:100F7000022500260223324F3F6807F00C0121B101
:100F8000042905D0082937D105E02E4F076036E047
:100F90002D4F076033E02A4F3F1F3F68C7F380564D
:100FA000274F3F1F3F6807F03F036EB1264FB7FB47
:100FB000F3F7DFF88CC0ACF1040CDCF800C0CCF324
:100FC000881C07FB0CF40CE01E4FB7FBF3F7DFF8AF
:100FD00070C0ACF1040CDCF800C0CCF3881C07FB3B
:100FE0000CF4174F3F1F3F68C7F301477F1C7D007C
:100FF000B4FBF5F7076002E0124F076000BF00BFC7
:101000000F4F3F6807F0F0010909104F7A5C07683D
:10101000D74047600A4F3F6807F4E051890A0B4FF9
:101020007A5C4768D7408760054F3F6807F46041A6
:10103000490B064F7A5C4768D740C760F0BD000097
:10104000083802400024F40000127A001700002043
:101050000CB50020019000903448006840F48030C6
:101060003249086000BF3148006800F40030009049
:101070000198401C0190009818B90198B0F5A04F54
:10108000F1D12A48006800F4003010B1012000902E
:1010900001E0002000900098012846D1234840300C
:1010A000006840F0805021494031086020480068C5
:1010B00040F440401E4908601C48083000681B4945
:1010C000083108600846006840F40040086008469F
:1010D000006840F4A05008601648091F0860081F07
:1010E000006840F08070091F086000BF0F4800686A
:1010F00000F000700028F9D040F205700E49086039
:101100000A480830006820F00300084908310860E8
:101110000846006840F00200086000BF034808303D
:10112000006800F00C000828F8D10CBD003802401F
:101130000070004008544007003C0240042808D1D9
:101140004FF0E021096941F004014FF0E022116104
:1011500007E04FF0E021096921F004014FF0E0229F
:101160001161704710B51548006840F470001349CC
:1011700008601348006840F0010011490860002031
:101180000F49083108600E4800680E4908400C49B4
:1011900008600D48091D0860081F006820F48020C1
:1011A000091F0860002006490C310860FFF750FF56
:1011B0004FF0006001498039086010BD88ED00E003
:1011C00000380240FFFFF6FE103000240FB430B5A7
:1011D000A1B025A80090802101A8009B249A00F0CE
:1011E00091F9054600200090002D11DD002404E057
:1011F00001A9085D02F01CFB641CAC42F8DBFF2077
:1012000002F016FBFF2002F013FBFF2002F010FBA0
:1012100021B030BC5DF814FB10B540F225510848F0
:1012200000F09CF858B1064800F052F9C4B22046CC
:1012300002F074FA40F22551014800F067F810BD41
:10124000004C004070B540F225512A4800F086F865
:1012500000284DD0274800F03BF9C4B2242C0FD110
:1012600000202549A1F800010846B0F80011B0F8A7
:101270000001401C204AA2F800011046445432E00C
:101280001D48B0F80001002829DD1B48B0F8000116
:10129000FF2824DA1848B0F80011B0F80001401C0B
:1012A000154AA2F80001104644540A2C1BD1002014
:1012B0001146B1F800115054154610A12846FEF70A
:1012C00093FF20B90FA12846FEF78EFF10B12846E4
:1012D00001F0FEFE00200849A1F8000103E0002013
:1012E0000549A1F8000140F22551024800F00EF82E
:1012F00070BD0000004400403000002024475052E0
:101300004D43000024474E524D43000010B50022CB
:10131000002340F66A14A14200D100BF0A12012442
:101320009440A3B2DC43048010BD21B1828942F411
:101330000052828104E082894DF6FF731A40828157
:10134000704702460020B1F5007F00D100BF13882E
:101350000B400BB1012000E00020704770B5024641
:10136000002400230025002040F66A16B14200D177
:1013700000BFC1F3421501F01F03012606FA03F373
:10138000012D02D19689334006E0022D02D1168A42
:10139000334001E0968A33400C12012606FA04F429
:1013A0001688344013B10CB1012000E0002070BD5C
:1013B000F0B50346002400260025002040F66A17F9
:1013C000B94200D100BF1846C1F3421401F01F0614
:1013D000012707FA06F5012C01D10C3004E0022C9C
:1013E00001D1103000E014301AB107682F430760B4
:1013F00002E00768AF430760F0BD00002DE9FF473A
:1014000005460E460024A14600BFA046B08900B1A3
:1014100000BF2C8A24F44054F08804432C82AC8909
:1014200041F20C608443B0883189084371890843D4
:101430000443AC81AC8A24F44074B0890443AC8288
:101440006846FFF791FD2048854202D01F4885423B
:1014500002D1DDF80C9001E0DDF80890A88900F4D5
:10146000004040B109EBC90000EB091031684900A8
:10147000B0FBF1F707E009EBC90000EB0910316898
:101480008900B0FBF1F76420B7FBF0F004012009FC
:10149000642101FB1078A88900F4004040B132209B
:1014A00000EBC800B0FBF1F000F00700044308E0D7
:1014B000322000EB08106421B0FBF1F000F00F00C7
:1014C00004432C81BDE8FF87001001400014014057
:1014D00001468888C0F308007047C1F30802828083
:1014E000704700000FB4054B10B503A9044A0298D9
:1014F00000F006FD10BC5DF814FB0000DD290008BB
:10150000280000207CB50C001D461646014601D07F
:10151000601E00E00020CDE90010064B6A46294617
:10152000304600F0EDFC002C02D0009A0021117032
:101530007CBD0000072600084100080218BF0420F7
:101540000A0E18BF40F001004FF07F4232EA01015D
:1015500008BF40F00200012808BF052070470000C6
:10156000004870472C00002030B583B0044600F0DE
:10157000E1FB9FED090B05468DED000B0022214696
:101580006846FEF77CFF284600F0EAFB9DED000B65
:1015900003B030BD000000000000000000000000AB
:1015A00010EE101A08B5444A6846B2EB410F28D92C
:1015B0004FF0E640B0EB410F94BF00204FF0FF30FA
:1015C00000900098002861DB60EE000A10F0010F27
:1015D00045D010F0020FDFED391A9FED391A00EEF9
:1015E000E11ADFED381A40EE811A21EEA01AF0EE72
:1015F000400A40EE010A08BFF1EE600AB0EE600A50
:1016000008BD314B21F0004293423CD911F0004F0C
:10161000DFED2E0A20EE201ADFED2D0A19BF31EE84
:10162000601A71EE200A31EE201A71EE600ABDEEEA
:10163000E01A11EE100A9FED271A00F0030000EEE9
:10164000C10A9FED251A009000EEC10A9FED231AF2
:1016500000EEC10A9FED221A00EEC10AB1E79FED2C
:10166000211A9FED210A10F0020F00EE810A9FED72
:101670001F1A00EE801AB7EE000A00EE810A18BFAA
:10168000B1EE400A08BD00F0ABFA9AE710EE100A7E
:101690004000B0F17F4F3CBFB7EE000A08BD07D154
:1016A0004FF0010000F05CFBBDE8084000F088BA94
:1016B000BDE8084000F080BAB61F927E336D4C3909
:1016C000DA82083CA0AA2ABE490E494683F9223F85
:1016D0000000004B0000C93F00A0FD390020A233EC
:1016E0001A61342CB93AB2BACA9F2A3DDDFFFFBE57
:1016F00010EE100A10B50023A0F50001B1F1FE4F65
:1017000067D200BF00F500216FF07E0202EBE15CC2
:10171000C1F302524FF07E5101EB025100EE901ADC
:10172000A0EBCC5003EB0C0100EE100A51EA0200D2
:1017300036D030EE601A70EE200A9FED3D2A3E480A
:1017400081EE200A9FED3B1A60EE000A00EE821A3D
:1017500060EE201A61EE810A784401EE101A00EB67
:1017600082009FED362AB8EEC11AD0ED001A344837
:1017700041EE021A784401EE101A00EB8200B8EE36
:10178000C11A90ED002ADFED2F2A01EE222AB0EED9
:10179000001A72EE200A40EE010A31EEA00A10BDD6
:1017A000F7EE000A9FED291A30EE600ADFED260AF7
:1017B00000EE201ADFED260A60EE001A40EE010A64
:1017C0009FED241A00EE201A61EE810A30EE200A05
:1017D00010BD4FF07F41B1EB400F03D2BDE8104088
:1017E00000F0EAB9B0F1FF4F08BF10BDB5EEC00A76
:1017F000F1EE10FA06D2012000F0B2FABDE8104076
:1018000000F0DEB9B5EEC00AF1EE10FA07D1022001
:1018100000F0A6FA00F0C6F9B1EE400A10BDDFED07
:101820000E0A6FF0160320EE200A10EE100A69E788
:1018300066F1CC3EAAAA2A3F8C2500000070313FF9
:1018400090250000F4FD053821ED423E0A1180BECE
:10185000C1ABAA3EFFFFFFBE0000004B00B510EE7B
:10186000101A2DED028B81B0524A6846B2EB410F3F
:101870002ED94FF0E640B0EB410F94BF00204FF05F
:10188000FF3000900098B0EE408A00286ADB10F02C
:10189000010F4BD068EE080A9FED471A9FED470AEB
:1018A00000EE810A9FED461A10F0020F00EE801A3A
:1018B000B7EE000A00EE810A02BF01B0BDEC028B58
:1018C00000BD00BF01B0B1EE400ABDEC028B00BD0F
:1018D0003C4B21F00042934241D911F0004FDFED23
:1018E0003A0A20EE201ADFED390A19BF31EE601AEC
:1018F00071EE200A31EE201A71EE600ABDEEE01A98
:1019000011EE100A9FED321A00F0030000EEC10A3A
:101910009FED301A009000EEC10A9FED2F1A00EEE5
:10192000C10A9FED2E1A00EEC10AABE728EE080AA5
:101930009FED2B1ADFED2B0A10F0020F40EE410A4B
:101940009FED291A00EE201A61EE000AB0EE480A57
:1019500008EE200AB6D101B0BDEC028B00BD00F04C
:101960003FF98FE718EE100A4000B0F17F4F0DD21B
:1019700018EE100AFFF7E0FD042808BF00F028F970
:10198000B0EE480A01B0BDEC028B00BD09D10120C8
:1019900000F0E6F901B0BDEC028B5DF804EB00F05D
:1019A0000FB901B0B0EE480ABDEC028B5DF804EB54
:1019B00000F002B9B61F927EB93AB2BACA9F2A3D68
:1019C000DDFFFFBE490E494683F9223F0000004B70
:1019D0000000C93F00A0FD390020A2331A61342C59
:1019E000336D4C39DA82083CA0AA2ABE10B52DED21
:1019F000028BB1EEC08A18EE100A20F00040C0F150
:101A0000FF40C00F0AD010EE100A20F00040C0F1D5
:101A1000FF40C00F04BF012000F0A2F9B0EE480A59
:101A2000BDEC028B10BD000000B510EE101A2DEDBC
:101A3000028B81B04D4A6846B2EB410F3CD94FF062
:101A4000E640B0EB410F94BF00204FF0FF30009014
:101A50000098B0EE408A00285FDB28EE080ADFED30
:101A6000440A9FED441A00EE201ADFED430A40EECF
:101A7000010A9FED421A00EE201ADFED410A10F034
:101A8000010F40EE010A9FED3F1A00EE201A61EEB1
:101A9000000AB0EE480A08EE200A02BF01B0BDEC11
:101AA000028B00BDBFEE001A01B0C1EE000ABDEC12
:101AB000028BB0EE600A00BD334B21F0004293422E
:101AC00028D911F0004FDFED310A20EE201ADFEDAA
:101AD000300A19BF31EE601A71EE200A31EE201A79
:101AE00071EE600ABDEEE01A11EE100A9FED291AA0
:101AF00000F0030000EEC10A9FED271A009000EEEF
:101B0000C10A9FED261A00EEC10A9FED251A00EECC
:101B1000C10A9DE700F064F89AE718EE100A400049
:101B2000B0F17F4F0DD218EE100AFFF705FD042823
:101B300008BF00F04DF8B0EE480A01B0BDEC028BD2
:101B400000BD09D1012000F00BF901B0BDEC028B02
:101B50005DF804EB00F034B801B0B0EE480ABDEC1B
:101B6000028B5DF804EB00F027B80000B61F927EF0
:101B7000BBE9223C0C6D063B8A76CE3CACB5593DA8
:101B800035A1083E29AAAA3E490E494683F9223FBB
:101B90000000004B0000C93F00A0FD390020A23327
:101BA0001A61342CDFED030AB7EE001A81EE200A29
:101BB000704700000000000030EE000A704700008F
:101BC000DFED020A80EEA00A70470000000000006E
:101BD0009FED020A20EE000A70470000000000108E
:101BE0002DE9F0014FF07F42B2EB410F9FBF4FF064
:101BF000FF310160BDE8F00170474FF0004242EA5A
:101C00000123C1F3C752783A551112F01F0C434C0F
:101C1000CCF120067C44C1F3C752A2F178024FEA0E
:101C2000621204EB820254F8254008BFD2E9015643
:101C300012D0556804FA0CF425FA06F73C4397686D
:101C400005FA0CF527FA06F8D26807FA0CFCF24000
:101C500045EA08054CEA0206A4FB034CA5FB035227
:101C6000A6FB03631D449D4234BF012600261319C1
:101C7000334416B1934202D903E0934201D20122C8
:101C800000E00022624402F1200C9206DC0C42EAE1
:101C9000443200EE102A5B03DFED210AF8EEC01A91
:101CA00000EE103A4FEA9C1C11F0004FB8EE400ACB
:101CB000C0F800C020EE201A00EE105ADFED190A1D
:101CC000B8EE400A20EE200A71EE810A70EE800A1A
:101CD00010EE902A02F500626FF30B0200EE902ADC
:101CE00070EEE11A31EEC11ADFED101A30EE411A32
:101CF0009FED0D0A20EE800A01EE210A9FED0C1ADD
:101D000000EE810A04BFBDE8F0017047CCF18051BC
:101D10000160BDE8F001B1EE400A704710210000FB
:101D2000000000360000802C22AAFD29DB0FC92FFD
:101D30000000C92F01480068704700002C000020F7
:101D400002E008C8121F08C1002AFAD17047704784
:101D5000002001E001C1121F002AFBD170470000E2
:101D600001490860704700002C0000202DE9FF5F4A
:101D700082B00021DDE90430020DDDF840B00343FC
:101D800018D044F61050A2F2FF32424315141198B5
:101D900001281FD0A5EB0B00401C5FEA000A4FF0A2
:101DA00000064E4FDFF83891B046504615D5CAF1BF
:101DB000000413E0119801244AA3012801D16FEA1D
:101DC0000B010298119AC0E90031C0E9024206B045
:101DD000BDE8F09FCBF10000DFE704460021404A58
:101DE000491842EB0450CDE9001012E0E00707D09B
:101DF00032463B4640464946FEF752FC80468946FD
:101E000032463B4610461946FEF74AFC06460F4648
:101E10006410002CEAD1DDE90401DDE90023BAF108
:101E2000000F06DAFEF73CFC42464B46FEF738FC54
:101E300005E0FEF7A7FC42464B46FEF7A3FC04462E
:101E40000E460022284BFEF725FD03D84FF0FF3049
:101E5000014607E00022254B20463146FEF779FB7C
:101E6000FEF7FFFC102409E0002C0ADB0A22002305
:101E7000FEF75DFA039B30321A55641E50EA0102E8
:101E8000F2D1641C039AC4F111031444119A012A7B
:101E900003D0012208430DD10AE0084304D00020FA
:101EA0004FF0110B119072E7A3EB0B056D1E0DE0C7
:101EB0005B4504DD4FF0000205F1010504E003DAA3
:101EC0004FF00002A5F10105002AECD0029811990B
:101ED000C0E90231C0E9004579E700000000144084
:101EE0000000F03F300000000000F0430000E03F41
:101EF00030380A2801D201207047002070470000C6
:101F00002DE9FF4F95B09A46884606460025EEE13A
:101F1000252877D100242746F94A0121039400E0BF
:101F2000044316F8013F203B01FA03F01042F7D1B9
:101F300030782A2811D06FF02F033078A0F13002CA
:101F4000092A16D8039A44F0020402EB820203EB3A
:101F500042021044761C0390EFE758F8042B0392DA
:101F6000002A03DA504244F40054039044F002047F
:101F7000761C30782E2816D116F8010F44F0040490
:101F80002A280DD06FF02F023078A0F13003092BF2
:101F900009D807EB870302EB4303C718761CF3E766
:101FA00058F8047B761C30786C280FD006DC4C285F
:101FB00017D068280DD06A2814D104E0742810D0F6
:101FC0007A280FD10DE044F400140AE044F48014A0
:101FD00001E044F440147278824202D104F5801486
:101FE000761C761C307866280BD013DC582877D006
:101FF00009DC002875D04528F6D04628F4D04728BB
:102000001AD193E118E0632835D0642879D0652887
:1020100012D18BE1702873D008DC6728F1D06928D1
:102020006FD06E280DD06F2806D1ACE073282CD06D
:10203000752874D0782853D05246179990476D1C54
:1020400054E1C4F30250022809D003280DD0D8F877
:10205000001004280DD00D6008F1040846E1D8F8FE
:102060000010EA17C1E90052F6E7D8F800100D8019
:10207000F2E70D70F0E718F8041B8DF8001000204F
:102080008DF80100EB46012003E058F804BB4FF047
:10209000FF3061074FF0000102D40DE009F10101AA
:1020A0008946B9420FDA8145F8DB1BF8091000298F
:1020B000F4D108E009F1010189468142FADB1BF8FD
:1020C00009100029F6D103985346A0EB09072146D1
:1020D0003846179A00F080FA284400EB090507E01B
:1020E00044E008E10DE01BF8010B524617999047B8
:1020F000B9F10109F7D2534621463846179AF2E062
:1021000039E00A21C4F302524FF0000B0091022A79
:1021100006D058F8040BC117032A09D00AE023E0BF
:1021200008F1070020F00702F2E80201904605E0FE
:1021300000B2C117042A01D140B2C117002906DA42
:102140000A460021404261EB02012D2202E02205F5
:1021500004D52B228DF80420012203E0E20701D0F0
:102160002022F7E7914657E00A2100E010214FF0C6
:10217000000B00910BE010214FF0000B44F0040421
:102180000827009103E008204FF0000B0090C4F3F3
:102190000252022A05D058F8040B0021032A08D065
:1021A00008E008F1070020F00702F2E8020190467B
:1021B00003E080B2042A00D1C0B24FF00009220728
:1021C0002AD53278702A07D0DDF800C08CF0100CC8
:1021D0005CEA0B0C05D00EE040228DF804200122B1
:1021E00008E050EA010306D030238DF804308DF862
:1021F000052002229146009B83F0080353EA0B035B
:102200000AD150EA010201D1620705D530228DF8CA
:1022100004204FF001097F1E3278582A04D039A2D9
:102220000C920CAA02920BE03BA2F9E75B46009AE3
:10223000FEF77DF80C9B9B5C029A521E0292137073
:1022400050EA0102F2D1029804A9081A00F1200B09
:10225000600702D524F4803400E001275F4502DDE9
:10226000A7EB0B0000E0002000EB0B0100900398AF
:102270004944401A0390E00306D453462146179A76
:10228000039800F0A9F90544002706E001A852468A
:10229000C05D179990476D1C7F1C4F45F6DBE0032E
:1022A0000CD553462146179A039800F095F905443A
:1022B00004E030205246179990476D1C0099481E43
:1022C00000900029F5DC08E0029802995246007857
:1022D000491C0291179990476D1CBBF10001ABF1AD
:1022E000010BF1DC5BE100F065F90544761C307808
:1022F00000287FF40DAE19B02846BDE8F08F00002D
:1023000009280100303132333435363738396162CB
:10231000636465660000000030313233343536378F
:10232000383941424344454600000000600700D46C
:10233000062708F1070020F00700F0E80223804696
:1023400003F0004C5FEA0C0001D097A009E02005E3
:1023500001D596A005E0E00701D095A001E0AFF21D
:102360004C001390307823F0004365280CD006DC35
:10237000452809D046281DD047287FD13BE0662854
:1023800018D067287AD136E00021112F01DB112007
:1023900000E0781CCDE9000104A90CA8FFF7E6FCD9
:1023A000DDE90D010C9A4FF0000B07F101091092C5
:1023B00000914EE04FF000400097CDE9011004A9D4
:1023C0000CA8FFF7D3FCDDE90D020C9B0F994FF031
:1023D000000B91461093009211B9791C00EB010992
:1023E000B7EB090003D4C0F1FF3B07F10109A9EBEA
:1023F0000700019042E0012F00DA01270021112F90
:1024000001DD112000E03846CDE9000104A90CA847
:10241000FFF7ACFCDDE90D010C9A00914FF0000BC9
:10242000B946109221070FD4009A4A4503DA914623
:1024300001E0A9F10109B9F1010F05DD109AA9F137
:102440000101515C3029F4D0B84202DA10F1040FD6
:1024500003DA0121CDE9011010E0002803DC8344F8
:10246000A9EB000102E0411C494500DD8946A0EBD3
:102470000B00401C01904FF000400290200705D453
:102480000198484502DB4FF0FF30019000208DF8A5
:102490004B0002980DF14B07B0F1004F25D0022000
:1024A0000C902B200D90029800280CDA40420290EC
:1024B0002D200D9007E00A210298FDF722FF303110
:1024C000029007F8011D0C99481E0C900029F2DCBF
:1024D00002980028EFD1791E0D980870307800F02E
:1024E000200040F0450007F8020D11A8C01BC01DD8
:1024F00002901398007800B1012000EB09010198C7
:1025000001EBE071029801440398401A401E0390C9
:10251000E00306D453462146179A039800F05CF86E
:1025200005441398007818B15246179990476D1CCE
:10253000E00323D553462146179A039800F04CF840
:1025400005441BE0BBF1000F07DB0098584504DD94
:102550001098179910F80B0001E017993020524697
:10256000904701980BF1010B401E05F10105019008
:1025700004D12E205246179990476D1CB9F10001E5
:10258000A9F10109DEDC05E017F8010B52461799A5
:1025900090476D1C0299481E02900029F4DC5346B6
:1025A0002146179A03989EE62D0000002B0000009C
:1025B000200000002DE9F041044600251E46174684
:1025C000880404D405E039462020B0476D1C641E01
:1025D000F9D52846BDE8F0812DE9F04104460025F3
:1025E0001E469046C80301D5302700E02027880406
:1025F00004D505E041463846B0476D1C641EF9D548
:102600002846BDE8F0814A68002A06D00A68531CB3
:102610000B6010704868401E4860704710B54FF05E
:102620000060084908600420FEF788FD4FF6FF703F
:102630004FF0E02148610846006940F00100086160
:1026400010BD000008ED00E010B504461CB140F2DA
:102650000510005D00B910BD4FF48370015B4FF4AD
:102660009C7001534FF48470015D84F83A11401C52
:10267000015D84F83B11401C005D083084F83C018A
:1026800040F20B10015D84F83D11401C015D84F89F
:102690003E1194F83C01182835DB94F83C011838B9
:1026A00084F83C0194F83B01401C84F83B011FE096
:1026B00094F83A114FF49C72105B00F0C9FA94F848
:1026C0003B11081A84F83B0194F83A01401C84F845
:1026D0003A0194F83A010C280ADD012184F83A11F4
:1026E0004FF49C70005B401C81B24FF49C7001530E
:1026F00094F83A114FF49C72105B00F0A9FA94F828
:102700003B118842D4DB00BFA5E710B504464FF467
:102710008670005D401CC1B24FF486700155005DAB
:102720003C2857DB00214FF486700155401E005DA8
:10273000401CC1B240F20B100155005D3C2849DB42
:10274000002140F20B100155401E005D401CC1B23B
:102750004FF485700155005D18283BDB00214FF4D4
:1027600085700155401E005D401CC1B240F2091049
:10277000015523E04FF48472115D921E105B00F04E
:1027800067FA40F20911095D081AC1B240F2091056
:102790000155401E005D401CC1B24FF484700155CC
:1027A000005D0C280ADD01214FF484700155801E64
:1027B000005B401C81B24FF4837001534FF484726C
:1027C000115D921E105B00F043FA40F20911095DA1
:1027D0008842CFDB2046FFF737FF10BD0FB430B57E
:1027E000A1B025A80090802101A8009B249AFEF7A3
:1027F00089FE054600200090002D11DD002404E034
:1028000001A9085D00F010F8641CAC42F8DBFF2061
:1028100000F00AF8FF2000F007F8FF2000F004F8AD
:1028200021B030BC5DF814FB10B5044621460548C4
:10283000FEF753FE00BF80210248FEF782FD00280C
:10284000F9D010BD0050004010B504464FF47A7125
:1028500004FB01F000F002F810BD000070B5034663
:102860000022114D2D68114EB5FBF6F505FB03F462
:102870004FF0E025A96913E04FF0E025A8698842F0
:102880000ED0884202D20D1A2A4405E04FF0E0250E
:102890006D692D1A0D442A440146A24200D300E07E
:1028A000EAE700BF70BD00000000002040420F00BA
:1028B000F0EE400A14481549097800EB8100C0ED9C
:1028C000000A12480078401C052190FBF1F201FB40
:1028D00012000E4908709FED0E0AB0EE401A00205B
:1028E0000AE0094901EB800191ED000A30EE010A8E
:1028F000B0EE401A411CC8B20528F2DBF1EE041A12
:1029000081EE210A704700007403002014000020AB
:1029100000000000F0EE400A14481549097800EB69
:102920008100C0ED000A12480078401C052190FB90
:10293000F1F201FB12000E4908709FED0E0AB0EE95
:10294000401A00200AE0094901EB800191ED000ADC
:1029500030EE010AB0EE401A411CC8B20528F2DB85
:10296000F1EE041A81EE210A70470000880300206E
:102970001500002000000000F0EE400A1448154940
:10298000097800EB8100C0ED000A12480078401C75
:10299000052190FBF1F201FB12000E4908709FED3A
:1029A0000E0AB0EE401A00200AE0094901EB80014E
:1029B00091ED000A30EE010AB0EE401A411CC8B297
:1029C0000528F2DBF1EE041A81EE210A70470000BF
:1029D0009C030020160000200000000070B5044693
:1029E0000D46E0B2FFF720FF204670BD70B52DED1B
:1029F000088BF0EE408AB0EE60AA04460D461646FB
:102A00009FED450AF4EEC08AF1EE10FA03DD9FED6A
:102A1000420AF0EE408A9FED410AF4EEC08AF1EEE0
:102A200010FA03D29FED3D0AF0EE408A0120A0404B
:102A300000EE100AB8EE408A9FED390A7AEE000ADD
:102A40009FED381A80EE810A20EE089A9FED360A33
:102A500028EE800ADFED320AC0EE20AAB0EE6A0A44
:102A6000FEF7E2FFF0EE40BAB0EE6A0AFEF798FD1C
:102A7000F7EE000A80EE801A3BEE810AB0EE40BA13
:102A8000FEF736FE9FED281AC0EE010AB7EE000AE7
:102A900030EE600AF6EE000A20EE200A60EE089A98
:102AA000B5EEC09AF1EE10FA02D29FED200A0FE0C7
:102AB000B4EEC89AF1EE10FA08DBB7EE000A38EE71
:102AC000400ABCEEC00AB8EE400A01E0B0EE490A86
:102AD000BCEEC00A85ED000AF5EEC09AF1EE10FAE0
:102AE00002D29FED120A0FE0F4EEC89AF1EE10FA4E
:102AF00008DBB7EE000A38EE400ABCEEC00AB8EEBA
:102B0000400A01E0B0EE690ABCEEC00A86ED000A98
:102B1000BDEC088B70BD00002A1AAA422A1AAAC26C
:102B2000000034430000B443DB0F494000000000C4
:102B30002DE9F0412DED088BB0EE408AB0EE609AA1
:102B400004460D4616469FED3C0AB4EEC08AF1EEEF
:102B500010FA03DD9FED380AB0EE408A9FED370A88
:102B6000B4EEC08AF1EE10FA03D29FED340AB0EE53
:102B7000408A0120A04000EE100AF8EE408A9FED46
:102B8000300A79EE000A9FED2F1A80EE810A20EEBE
:102B9000280ADFED2D0A60EE209A9FED2C0A28EE20
:102BA000000ADFED270A80EE20AAB0EE4A0AFEF7FF
:102BB0003BFFF0EE40BAB0EE4A0AFEF7F1FCF7EE4A
:102BC000000A80EE801A3BEE810AB0EE40BAFEF7B2
:102BD0008FFD9FED1E1AC0EE010AB7EE000A30EE1F
:102BE000600AF6EE000A20EE200A20EE280ADFED49
:102BF000160A60EE20AABCEEE90A10EE101A88B29E
:102C0000C11700EB11610912A0EB01218FB2BCEEDC
:102C1000EA0A10EE101A88B2C11700EB116109120E
:102C2000A0EB01211FFA81F82F7086F80080BDEC1F
:102C3000088BBDE8F08100002A1AAA422A1AAAC20B
:102C4000000034430000B44300008043DB0F4940E0
:102C50003EB505460C460BA207CA8DE80700022CBC
:102C600005D1284600F0C2FA08B11D203EBD012C56
:102C700005DB0C2C03DC601E1DF80000F6E71F20AE
:102C8000F4E700001F1C1F1E1F1E1F1F1E1F1E1FFC
:102C900010B52DED028B00F0BBF8B0EE408AB0EE1F
:102CA000480AFFF705FEBDEC028B10BD10B52DEDF7
:102CB000028B00F0BDF8B0EE408AB0EE480AFFF794
:102CC00029FEBDEC028B10BD10B52DED028B00F07E
:102CD000BFF8B0EE408AFFF74FFEBDEC028B10BD8F
:102CE000F8B5054600266C1C02E014F8010B4640BE
:102CF000207840B120782A2805D020780D2802D0ED
:102D000020780A28F1D120782A2813D100200090B9
:102D100060788DF80000A0788DF801001022002165
:102D20006846FDF786FAC7B2BE4201D10120F8BD60
:102D30000020FCE70020FAE70020024981F840016A
:102D40007047000030000020D0ED000A9FED151AFA
:102D5000C0EE811AFDEEE10A10EE902A90ED001A05
:102D60006423534300EE903AF8EEE00A71EE600AF5
:102D7000B0EE600ADFED0C0A80EE201A00EE902A19
:102D8000F8EEE00A71EE200AC0ED000A532901D0E6
:102D9000572905D1D0ED000AF1EE600AC0ED000A16
:102DA000704700000000C842000070422DE9F04763
:102DB00004460D4616460027A14622E020782C281E
:102DC0001ED1781CC7B2B74202D104F1010917E045
:102DD000701C874213D1A4EB090000F0FF08B8F182
:102DE000000F08DD424649462846FDF70FFA00204D
:102DF00005F8080001E000202870BDE8F08700BF5A
:102E0000641C20780028D9D1287000BFF5E70000A5
:102E100008B5064890ED480A8DED000A90F8241197
:102E20006846FFF791FF9DED000A08BD30000020C5
:102E300008B5064890ED4A0A8DED000A90F82C116D
:102E40006846FFF781FF9DED000A08BD30000020B5
:102E5000034890ED4C0ADFED030A20EE200A70478C
:102E600030000020560EED3F014890F805017047F4
:102E700030000020014890F84001704730000020E9
:102E800010B52DED028B86B00446012201A9204623
:102E9000FFF78CFF01A8FDF7C5F906282FD30B22F9
:102EA00001A98948FDF7B2F99DF8050030389DF871
:102EB0000410303901EB810100EB4100C1B28348BD
:102EC00080F80A119DF8070030389DF80610303957
:102ED00001EB810100EB4100C1B27C4880F80B118D
:102EE0009DF8090030389DF80810303901EB810158
:102EF00000EB4100C1B2754880F80C1107E00021D9
:102F0000724880F80C1180F80B1180F80A11022227
:102F100001A92046FFF74AFF9DF80400412801D18E
:102F2000012100E00021694880F80511032201A970
:102F30002046FFF73BFF01A8FDF774F968B101A82F
:102F4000FEF712FBB0EE408AF0EE608A51EC180BEF
:102F5000FDF7BBF95D49C1F82001042201A9204613
:102F6000FFF724FF01A8FDF75DF920B19DF80410DB
:102F7000564880F82411052201A92046FFF716FFC4
:102F800001A8FDF74FF968B101A8FEF7EDFAB0EE20
:102F9000408AF0EE608A51EC180BFDF796F94B4928
:102FA000C1F82801062201A92046FFF7FFFE01A86B
:102FB000FDF738F920B19DF80410444880F82C1131
:102FC000072201A92046FFF7F1FE01A8FDF72AF923
:102FD00068B101A8FEF7C8FAB0EE408AF0EE608A48
:102FE00051EC180BFDF771F93849C1F8300108228E
:102FF00001A92046FFF7DAFE01A8FDF713F968B131
:1030000001A8FEF7B1FAB0EE408AF0EE608A51EC0A
:10301000180BFDF75AF92D49C1F83401092201A90D
:103020002046FFF7C3FE01A8FDF7FCF8062833D3BE
:10303000062201A924480C30FDF7E8F89DF80500A8
:1030400030389DF80410303901EB810100EB41006C
:10305000C1B21E4880F809119DF8070030389DF86C
:103060000610303901EB810100EB4100C1B2174875
:1030700080F808119DF80800303800EB80004FF40C
:10308000FA6101EB40019DF809003038084481B233
:103090000E48A0F8061109E04FF4FA610B48A0F8B9
:1030A0000611012180F8081180F80911074890F8ED
:1030B0000501064981F80401012081F8400106B0AC
:1030C000BDEC028B10BD00003D010020300000204F
:1030D00010B504462046FFF703FE18B904A0FEF71A
:1030E00001FA10BD2046FFF7CBFE00BFF9E7000054
:1030F0005B4750535D20436865636B73756D206556
:1031000072726F720D0A000010B588B0044601217A
:103110000820FDF709FF01214804FDF715FF2020D5
:10312000069002208DF81C0000208DF81E00022061
:103130008DF81D0001208DF81F0006A92848FDF715
:103140004CFE4020069002208DF81C0000208DF8D7
:103150001F0006A92248FDF740FE0722052120484E
:10316000FDF783FE072206211D48FDF77EFE02942F
:103170000020ADF80C00ADF80E00ADF81000ADF871
:1031800014000C20ADF8120002A91648FEF736F91B
:10319000012240F225511348FEF70AF926208DF846
:1031A000040002208DF8050001208DF806008DF83E
:1031B000070001A8FDF77CFE01210A48FEF7B5F8DB
:1031C0004FF4A4710848FDF704F800200649A1F85F
:1031D000000181F8040181F8400108B010BD000031
:1031E000000C0240004400403000002001460A4626
:1031F000C81701EB90708010A1EB800028B9642003
:1032000091FBF0F300FB131030B94FF4C87091FB41
:10321000F0F300FB131008B9012070470020FCE711
:103220002DED068B8EB0FFF7F9F94FF4165000F034
:1032300093FA4FF41650FFF767FF4FF47A70FFF7D9
:1032400003FB1CE16420FFF7FFFAFFF713FE0028E1
:10325000F7D0FFF71DFDF0EE408AFFF727FDB0EE37
:10326000409AFFF701FE002870D085A0FDF7AEFF61
:1032700088A0FDF7ABFF8D48FFF747FA0CA90DA812
:10328000F0EE490AB0EE680A00F05CFC0AAA0BA94D
:103290001120DDED0C0A9DED0D0AFFF7A7FB08AA32
:1032A00009A91020DDED0C0A9DED0D0AFFF79EFB2C
:1032B00006AA07A90E20DDED0C0A9DED0D0AFFF709
:1032C00095FB9DED0D0AB5EEC00AF1EE10FA01DB9B
:1032D0004E2000E0532004469DED0C0AB5EEC00AD6
:1032E000F1EE10FA01DB452000E0572005466F485B
:1032F000FFF7AAF904AA05A91120DDED0C0A9DED3E
:103300000D0AFFF715FC6AA69DF8140055280DDA82
:103310009DF81000552801DA67A627E09DF81000F7
:10332000AA2801DD66A621E067A61FE09DF814002B
:10333000AA280EDD9DF81000552801DA64A615E0D4
:103340009DF81000AA2802DD64A60FE08EE066A6B4
:103350000CE09DF81000552801DA65A606E09DF8FE
:103360001000AA2801DD63A600E051A6112162A089
:10337000DDE90A32FDF72AFF102168A0DDE90832F5
:10338000FDF724FF0E216EA0DDE90632FDF71EFFDA
:10339000464890F83E1190F83D01444A92F83C218D
:1033A000CDE900200291414890F83B3190F83A2154
:1033B000B0F838116AA0FDF709FF3C4890F83E01CB
:1033C0003A4991F83D11394A92F83C21CDE9002162
:1033D0000290364890F83B3190F83A21B0F8381115
:1033E0006BA0FDF7F3FE0D98FCF75CFF41EC1A0BA8
:1033F00053EC1A2B73A00094FDF7E8FE0D98FCF730
:1034000051FF41EC1A0B53EC1A2B75A00094FDF7F9
:10341000DDFE0C98FCF746FF41EC1A0B53EC1A2B1F
:1034200076A00095FDF7D2FE0C98FCF73BFF41EC2F
:103430001A0B53EC1A2B79A00095FDF7C7FEFFF786
:1034400043FCB0EE408ABDEEC80A10EE101A7AA016
:10345000FDF7BCFEBDEEC80A10EE101A7DA0FDF708
:10346000B5FE314683A0FDF7B1FE05E087A0FDF76C
:10347000ADFE8BA0FDF7AAFEFFF75EFC00BFE1E604
:1034800073686F775F4750532E7478743D22596587
:103490007322000073686F775F4750535F6D6178E8
:1034A0002E7478743D22596573220000300000208C
:1034B00063656E7465720000746F706C656674008D
:1034C0006C6F776C656674006C6566740000000054
:1034D000746F707269676874000000006C6F7772B7
:1034E0006967687400000000726967687400000012
:1034F000746F70006C6F77006D61696E5F657870D6
:10350000302E706174683D227364302F25642F253E
:10351000642F25642E6A7067220000006D61696E59
:103520005F657870312E706174683D227364302F4E
:1035300025642F25642F25642E6A70672200000001
:103540006D61785F6578702E706174683D22736478
:10355000302F25642F25642F25642E6A7067220082
:1035600073686F775F74696D652E7478743D22257A
:103570003034642D253032642D25303264202530DE
:1035800032643A253032643A253032642200000039
:1035900073686F775F74696D655F6D61782E74789D
:1035A000743D22253034642D253032642D2530328F
:1035B0006420253032643A253032643A2530326452
:1035C0002200000073686F775F6C617469747564C2
:1035D000652E7478743D22252E36662025632200E0
:1035E00073686F775F6C61745F6D61782E74787447
:1035F0003D22252E366620256322000073686F77F2
:103600005F6C6F6E6769747564652E7478743D22A3
:10361000252E3666202563220000000073686F7730
:103620005F6C6F6E5F6D61782E7478743D22252E0D
:10363000366620256322000073686F775F737065BC
:1036400065642E7478743D222564206B6D2F68228A
:103650000000000073686F775F73706565645F6D6D
:1036600061782E7478743D222564206B6D2F68225A
:1036700000000000706F735F696E64696361746F4E
:10368000722E7478743D22257322000073686F7760
:103690005F4750532E7478743D224E6F2200000015
:1036A00073686F775F4750535F6D61782E747874DD
:1036B0003D224E6F220000009FED101AF4EEC10A69
:1036C000F1EE10FA06D39FED0E1AF4EEC10AF1EEF8
:1036D00010FA01DD012070479FED0A1AB4EEC10A0D
:1036E000F1EE10FA06D39FED081AB4EEC10AF1EE1E
:1036F00010FA01DD0120EEE70020ECE70C02904219
:10370000AFD50943014D543FF34E5F4200200249BB
:103710008880488008807047780100200D4989889A
:10372000B1F5FA7F00DB70470A494A88891D885441
:10373000891F4988491C4FF4FA7291FBF2F302FB8E
:103740001311044A518011468988491C918000BF99
:10375000E9E700007801002010B588B00446012197
:103760000846FDF7E1FB0121C804FDF7EDFB012050
:10377000069002208DF81C0000208DF81E0002200B
:103780008DF81D0001208DF81F0006A92448FDF7C3
:1037900024FB0220069000208DF81F0006A9204877
:1037A000FDF71BFB082200211D48FDF75EFB0822E8
:1037B00001211B48FDF759FB02940020ADF80C00D5
:1037C000ADF80E00ADF81000ADF814000C20ADF807
:1037D000120002A91348FDF711FEFFF797FF01221F
:1037E00040F225510F48FDF7E3FD01210D48FDF79B
:1037F0009CFD34208DF8040001208DF80500002088
:103800008DF8060001208DF8070001A8FDF750FB98
:1038100005A0FDF7DBFC04A0FEF7E0FF08B010BD3B
:1038200000000240004C004000FFFFFF00000000CD
:1038300010B5044621460548FDF74FFE00BF802124
:103840000248FDF77EFD0028F9D010BD004C004075
:1038500010B52DED068BF0EE408AB0EE608A00BF09
:10386000B0EEE80AF0EE409AFEF7C0F8F0EE400A3B
:103870009FED500AB0EE001A01EE280AB0EE081AC9
:1038800001EE080A9FED4C1A28EE011A01EE080A13
:103890009FED4A1A28EE811A01EE080A9FED461A9A
:1038A00001EE200AB0EE409AF1EE080A68EEA00A96
:1038B0009FED431A60EE810AB0EE600AFDF7CEFF7D
:1038C000F3EE040A60EE209AF0EE000A68EEA00A19
:1038D0009FED3B1A60EE810AB0EE600AFDF7BEFF75
:1038E000F3EE040A40EE809AB0EE000A69EE800A18
:1038F000B0EE081A80EE810A30EE090AB0EE409A66
:10390000DFED2F0A68EE200AB0EE600AFDF7A6FF91
:10391000F3EE040A20EE20AAF0EE080A88EE200A50
:10392000DFED270A20EE200AF0EE409AFDF796FF21
:10393000DFED240A00EE80AAB0EE000A6AEE000A6B
:10394000B0EE081A80EE810A30EE090AB0EE409A15
:10395000F2EE080A88EE200ADFED190A20EE200AAE
:10396000F0EE409AFDF77AFFDFED170A20EE20AA6D
:10397000F3EE0E0A88EE200ADFED110A20EE200A8F
:10398000F0EE409AFDF76AFFDFED100A00EE80AA24
:10399000B0EE000A6AEE000AB0EE081A80EE810A64
:1039A00030EE090AB0EE409AB0EE490ABDEC068B43
:1039B00010BD00000000C8C2CDCC4C3ECDCCCC3DEB
:1039C000DB0F4940000020420000164300009643F0
:1039D00010B52DED068BB0EE408AB0EE609A00BFB8
:1039E000B0EEC80AF0EE409AFEF700F8F0EE400A9A
:1039F0009FED4F0A38EE000AB0EE001A01EE090AF8
:103A00009FED4C1A28EE011A01EE080A9FED491AA3
:103A100028EE011A01EE090A9FED461A01EE200A6E
:103A2000F0EE408AF1EE080A68EE200A9FED421A95
:103A300060EE810AB0EE600AFDF710FFF3EE040AB3
:103A400060EE209AF0EE000A68EE200A9FED3A1A26
:103A500060EE810AB0EE600AFDF700FFF3EE040AA3
:103A600040EE809AB0EE000A69EE800AB0EE081AC5
:103A700080EE810A30EE280AF0EE408ADFED2E0A51
:103A800068EE200AB0EE600AFDF7E8FEF3EE040AE5
:103A900020EE20AAF0EE080A88EE200ADFED260AC2
:103AA00020EE200AF0EE409AFDF7D8FEDFED230A63
:103AB00000EE80AAB0EE000A6AEE000AB0EE081A24
:103AC00080EE810A30EE280AF0EE408AF2EE080A13
:103AD00088EE200ADFED180A20EE200AF0EE409A68
:103AE000FDF7BCFEDFED160A20EE20AAB3EE0E0AAB
:103AF000C8EE000A9FED100A20EE800AF0EE409A10
:103B0000FDF7ACFEDFED0A0A00EE80AAB0EE000A77
:103B10006AEE000AB0EE081A80EE810A30EE280A3A
:103B2000F0EE408AB0EE680ABDEC068B10BD0000D6
:103B300000009643CDCCCC3DDB0F49400000204235
:103B40000000164370B52DED088BB0EE408AF0EE04
:103B5000608A04460D46F0EE680AB0EE480AFFF7A8
:103B6000ABFD30B184ED008AC5ED008ABDEC088B59
:103B700070BD9FED521A38EE411AF0EE410A9FEDEA
:103B8000501A38EEC11AB0EE410AFFF761FEB0EEEE
:103B900040AA9FED4A1A38EE411AF0EE410A9FED15
:103BA000481A38EEC11AB0EE410AFFF711FFF0EEE5
:103BB00040AA9FED440A28EE000ADFED430A80EE9A
:103BC00020BAB0EE4B0AFDF749FEB0EE409A9FEDE9
:103BD0003F0A69EE000AB7EE000A00EEC90AB0EE2D
:103BE000409AB0EE490AFDF701FFF0EE409A69EE07
:103BF000290A9FED371A81EE200ADFED320A20EE06
:103C0000200ADFED310A6AEE200A80EE801AB0EE5B
:103C100041AA9FED300AC0EE29BAB0EE4B0AFDF77B
:103C2000BFFC2BEE800ADFED270A20EE200ADFED35
:103C3000260A6AEEA00A80EE801AF0EE41AA38EE5B
:103C40000A0A84ED000A38EEAA0A85ED000A94ED0E
:103C5000000ADFED210AB4EEE00AF1EE10FA03DD0E
:103C60009FED1D0A84ED000A94ED000ADFED1B0AAA
:103C7000B4EEE00AF1EE10FA03D29FED180A84EDDB
:103C8000000A95ED000ADFED160AB4EEE00AF1EE47
:103C900010FA03DD9FED120A85ED000A95ED000A8A
:103CA000DFED100AB4EEE00AF1EE10FA03D29FED58
:103CB0000D0A85ED000A00BF58E7000000000C4225
:103CC0000000D242DB0F4940000034437D54DB3B0F
:103CD000AB57C14A32A5C24AF34E5F42014D543F31
:103CE000AFD509430C029042000000000030F13DC6
:103CF0000070643E0000A33E0090CF3E0090F83E6E
:103D000000400F3F00E0203F0000000015B7833760
:103D1000CDE37B380EE1C53860F69138AF5F0F38E0
:103D2000E1BC3E3823F44739000000006E83F9A25D
:103D30002915444ED15727FCC0DD34F5999562DB37
:103D40004190433CAB6351FE004040404040404006
:103D5000404041414141414040404040404040405E
:103D60004040404040404040400502020202020202
:103D70000202020202020202022020202020202051
:103D80002020200202020202020290909090909065
:103D90001010101010101010101010101010101023
:103DA0001010101002020202020288888888888897
:103DB0000808080808080808080808080808080883
:103DC000080808080202020240000000493D0008FD
:103DD000F03D00080000002030000000401D0008F9
:103DE000203E00083000002080070000501D000821
:103DF000007A030A00000000000000000102030432
:103E00000607080900000000000000010203040189
:103E1000020304060708090000000000000000007B
:040000050800018965
:00000001FF
